Archive member included to satisfy reference by file (symbol)

c:/nxp/lpcxpresso_8.2.2_650/lpcxpresso/tools/bin/../lib/gcc/arm-none-eabi/5.4.1/../../../../arm-none-eabi/lib/armv6-m\libcr_c.a(__weak__main.o)
                              ./src/cr_startup_lpc11uxx.o (__main)
c:/nxp/lpcxpresso_8.2.2_650/lpcxpresso/tools/bin/../lib/gcc/arm-none-eabi/5.4.1/armv6-m\libcr_eabihelpers.a(division_32.o)
                              ./src/system_LPC11Uxx.o (__aeabi_uidiv)
c:/nxp/lpcxpresso_8.2.2_650/lpcxpresso/tools/bin/../lib/gcc/arm-none-eabi/5.4.1/armv6-m\libcr_eabihelpers.a(division_idiv0.o)
                              c:/nxp/lpcxpresso_8.2.2_650/lpcxpresso/tools/bin/../lib/gcc/arm-none-eabi/5.4.1/armv6-m\libcr_eabihelpers.a(division_32.o) (__aeabi_idiv0)

Allocating common symbols
Common symbol       size              file

UARTBuffer          0x40              ./src/uart.o
UARTStatus          0x4               ./src/uart.o

Discarded input sections

 .text          0x00000000        0x0 ./src/aeabi_romdiv_patch.o
 .data          0x00000000        0x0 ./src/aeabi_romdiv_patch.o
 .bss           0x00000000        0x0 ./src/aeabi_romdiv_patch.o
 .ARM.attributes
                0x00000000       0x21 ./src/aeabi_romdiv_patch.o
 .group         0x00000000        0x8 ./src/clkconfig.o
 .group         0x00000000        0x8 ./src/clkconfig.o
 .group         0x00000000        0x8 ./src/clkconfig.o
 .group         0x00000000        0x8 ./src/clkconfig.o
 .group         0x00000000        0x8 ./src/clkconfig.o
 .group         0x00000000        0x8 ./src/clkconfig.o
 .group         0x00000000        0x8 ./src/clkconfig.o
 .group         0x00000000        0x8 ./src/clkconfig.o
 .group         0x00000000        0x8 ./src/clkconfig.o
 .text          0x00000000        0x0 ./src/clkconfig.o
 .data          0x00000000        0x0 ./src/clkconfig.o
 .bss           0x00000000        0x0 ./src/clkconfig.o
 .text.WDT_CLK_Setup
Memory Configuration

Name             Origin             Length             Attributes
MFlash32         0x00000000         0x00008000         xr
RamLoc4          0x10000000         0x00001000         xrw
RamUsb2          0x20004000         0x00000800         xrw
*default*        0x00000000         0xffffffff

Linker script and memory map

LOAD ./src/aeabi_romdiv_patch.o
LOAD ./src/clkconfig.o
LOAD ./src/cr_startup_lpc11uxx.o
LOAD ./src/crp.o
LOAD ./src/gpio.o
LOAD ./src/main.o
LOAD ./src/nmi.o
LOAD ./src/system_LPC11Uxx.o
LOAD ./src/timer16.o
LOAD ./src/timer32.o
LOAD ./src/uart.o
START GROUP
LOAD c:/nxp/lpcxpresso_8.2.2_650/lpcxpresso/tools/bin/../lib/gcc/arm-none-eabi/5.4.1/../../../../arm-none-eabi/lib/armv6-m\libcr_c.a
LOAD c:/nxp/lpcxpresso_8.2.2_650/lpcxpresso/tools/bin/../lib/gcc/arm-none-eabi/5.4.1/armv6-m\libcr_eabihelpers.a
END GROUP
                0x00000000                __base_MFlash32 = 0x0
                0x00000000                __base_Flash = 0x0
                0x00008000                __top_MFlash32 = 0x8000
                0x00008000                __top_Flash = 0x8000
                0x10000000                __base_RamLoc4 = 0x10000000
                0x10000000                __base_RAM = 0x10000000
                0x10001000                __top_RamLoc4 = 0x10001000
                0x10001000                __top_RAM = 0x10001000
                0x20004000                __base_RamUsb2 = 0x20004000
                0x20004000                __base_RAM2 = 0x20004000
                0x20004800                __top_RamUsb2 = 0x20004800
                0x20004800                __top_RAM2 = 0x20004800

.text           0x00000000      0xef0
 FILL mask 0xff
                0x00000000                __vectors_start__ = ABSOLUTE (.)
 *(.isr_vector)
 .isr_vector    0x00000000       0xc0 ./src/cr_startup_lpc11uxx.o
                0x00000000                g_pfnVectors
                0x000000c0                . = ALIGN (0x4)
                0x000000c0                __section_table_start = .
                0x000000c0                __data_section_table = .
                0x000000c0        0x4 LONG 0xef0 LOADADDR (.data)
                0x000000c4        0x4 LONG 0x10000000 ADDR (.data)
                0x000000c8        0x4 LONG 0x4 SIZEOF (.data)
                0x000000cc        0x4 LONG 0xef0 LOADADDR (.data_RAM2)
                0x000000d0        0x4 LONG 0x20004000 ADDR (.data_RAM2)
                0x000000d4        0x4 LONG 0x0 SIZEOF (.data_RAM2)
                0x000000d8                __data_section_table_end = .
                0x000000d8                __bss_section_table = .
                0x000000d8        0x4 LONG 0x10000004 ADDR (.bss)
                0x000000dc        0x4 LONG 0xe0 SIZEOF (.bss)
                0x000000e0        0x4 LONG 0x20004000 ADDR (.bss_RAM2)
                0x000000e4        0x4 LONG 0x0 SIZEOF (.bss_RAM2)
                0x000000e8                __bss_section_table_end = .
                0x000000e8                __section_table_end = .
 *(.after_vectors*)
 .after_vectors
                0x000000e8      0x134 ./src/cr_startup_lpc11uxx.o
                0x000000e8                data_init
                0x00000128                bss_init
                0x0000015c                ResetISR
                0x000001ec                NMI_Handler
                0x000001f4                HardFault_Handler
                0x000001fc                SVC_Handler
                0x00000204                PendSV_Handler
                0x0000020c                SysTick_Handler
                0x00000214                USBWakeup_IRQHandler
                0x00000214                SSP0_IRQHandler
                0x00000214                IntDefaultHandler
                0x00000214                FLEX_INT1_IRQHandler
                0x00000214                FLEX_INT2_IRQHandler
                0x00000214                USB_FIQHandler
                0x00000214                ADC_IRQHandler
                0x00000214                SSP1_IRQHandler
                0x00000214                FLEX_INT3_IRQHandler
                0x00000214                USB_IRQHandler
                0x00000214                BOD_IRQHandler
                0x00000214                I2C_IRQHandler
                0x00000214                WDT_IRQHandler
                0x00000214                TIMER32_0_IRQHandler
                0x00000214                FLEX_INT0_IRQHandler
                0x00000214                FMC_IRQHandler
                0x000002fc                . = 0x2fc
 *fill*         0x0000021c       0xe0 ff
                0x000002fc                PROVIDE (__CRP_WORD_START__, .)
 *(.crp)
 .crp           0x000002fc        0x4 ./src/crp.o
                0x000002fc                CRP_WORD
                0x00000300                PROVIDE (__CRP_WORD_END__, .)
                0x00000001                ASSERT (! ((__CRP_WORD_START__ == __CRP_WORD_END__)), Linker CRP Enabled, but no CRP_WORD provided within application)
 *(.text*)
 .text.FLEX_INT4_IRQHandler
                0x00000300       0x98 ./src/gpio.o
                0x00000300                FLEX_INT4_IRQHandler
 .text.FLEX_INT5_IRQHandler
                0x00000398       0x98 ./src/gpio.o
                0x00000398                FLEX_INT5_IRQHandler
 .text.FLEX_INT6_IRQHandler
                0x00000430       0x98 ./src/gpio.o
                0x00000430                FLEX_INT6_IRQHandler
 .text.FLEX_INT7_IRQHandler
                0x000004c8       0x98 ./src/gpio.o
                0x000004c8                FLEX_INT7_IRQHandler
 .text.GINT0_IRQHandler
                0x00000560       0x5c ./src/gpio.o
                0x00000560                GINT0_IRQHandler
 .text.GINT1_IRQHandler
                0x000005bc       0x5c ./src/gpio.o
                0x000005bc                GINT1_IRQHandler
 .text.GPIOInit
                0x00000618       0x30 ./src/gpio.o
                0x00000618                GPIOInit
 .text.GPIOGetPinValue
                0x00000648       0x5c ./src/gpio.o
                0x00000648                GPIOGetPinValue
 .text.GPIOSetBitValue
                0x000006a4       0x54 ./src/gpio.o
                0x000006a4                GPIOSetBitValue
 .text.GPIOSetDir
                0x000006f8       0x7c ./src/gpio.o
                0x000006f8                GPIOSetDir
 .text.delay    0x00000774       0x24 ./src/main.o
                0x00000774                delay
 .text.setPins  0x00000798       0x70 ./src/main.o
                0x00000798                setPins
 .text.displayNumber
                0x00000808      0x340 ./src/main.o
                0x00000808                displayNumber
 .text.getInput
                0x00000b48       0x4c ./src/main.o
                0x00000b48                getInput
 .text.main     0x00000b94       0x4c ./src/main.o
                0x00000b94                main
 .text.TIMER16_0_IRQHandler
                0x00000be0       0x80 ./src/timer16.o
                0x00000be0                TIMER16_0_IRQHandler
 .text.TIMER16_1_IRQHandler
                0x00000c60       0x80 ./src/timer16.o
                0x00000c60                TIMER16_1_IRQHandler
 .text.TIMER32_1_IRQHandler
                0x00000ce0       0xd0 ./src/timer32.o
                0x00000ce0                TIMER32_1_IRQHandler
 .text.UART_IRQHandler
                0x00000db0      0x110 ./src/uart.o
                0x00000db0                UART_IRQHandler
 .text.__weak_main
                0x00000ec0        0x8 c:/nxp/lpcxpresso_8.2.2_650/lpcxpresso/tools/bin/../lib/gcc/arm-none-eabi/5.4.1/../../../../arm-none-eabi/lib/armv6-m\libcr_c.a(__weak__main.o)
                0x00000ec0                __weak_main
                0x00000ec0                __main
 *(.rodata .rodata.* .constdata .constdata.*)
 .rodata.displayNumber
                0x00000ec8       0x28 ./src/main.o
                0x00000ef0                . = ALIGN (0x4)

.glue_7         0x00000ef0        0x0
 .glue_7        0x00000ef0        0x0 linker stubs

.glue_7t        0x00000ef0        0x0
 .glue_7t       0x00000ef0        0x0 linker stubs

.vfp11_veneer   0x00000ef0        0x0
 .vfp11_veneer  0x00000ef0        0x0 linker stubs

.v4_bx          0x00000ef0        0x0
 .v4_bx         0x00000ef0        0x0 linker stubs

.iplt           0x00000ef0        0x0
 .iplt          0x00000ef0        0x0 ./src/clkconfig.o

.rel.dyn        0x00000ef0        0x0
 .rel.iplt      0x00000ef0        0x0 ./src/clkconfig.o

.ARM.extab
 *(.ARM.extab* .gnu.linkonce.armextab.*)
                0x00000ef0                __exidx_start = .

.ARM.exidx
 *(.ARM.exidx* .gnu.linkonce.armexidx.*)
                0x00000ef0                __exidx_end = .
                0x00000ef0                _etext = .

.data_RAM2      0x20004000        0x0 load address 0x00000ef0
 FILL mask 0xff
                [!provide]                PROVIDE (__start_data_RAM2, .)
 *(.ramfunc.$RAM2)
 *(.ramfunc.$RamUsb2)
 *(.data.$RAM2*)
 *(.data.$RamUsb2*)
                0x20004000                . = ALIGN (0x4)
                [!provide]                PROVIDE (__end_data_RAM2, .)

.uninit_RESERVED
                0x10000000        0x0
 *(.bss.$RESERVED*)
                0x10000000                . = ALIGN (0x4)
                0x10000000                _end_uninit_RESERVED = .

.data           0x10000000        0x4 load address 0x00000ef0
 FILL mask 0xff
                0x10000000                _data = .
 *(vtable)
 *(.ramfunc*)
 *(.data*)
 .data.UARTTxEmpty
                0x10000000        0x1 ./src/uart.o
                0x10000000                UARTTxEmpty
                0x10000004                . = ALIGN (0x4)
 *fill*         0x10000001        0x3 ff
                0x10000004                _edata = .

.igot.plt       0x10000004        0x0 load address 0x00000ef4
 .igot.plt      0x10000004        0x0 ./src/clkconfig.o

.bss_RAM2       0x20004000        0x0
                [!provide]                PROVIDE (__start_bss_RAM2, .)
 *(.bss.$RAM2*)
 *(.bss.$RamUsb2*)
                0x20004000                . = ALIGN ((. != 0x0)?0x4:0x1)
                [!provide]                PROVIDE (__end_bss_RAM2, .)

.bss            0x10000004       0xe0
                0x10000004                _bss = .
 *(.bss*)
 .bss.flex_int4_counter
                0x10000004        0x4 ./src/gpio.o
                0x10000004                flex_int4_counter
 .bss.flex_int5_counter
                0x10000008        0x4 ./src/gpio.o
                0x10000008                flex_int5_counter
 .bss.flex_int6_counter
                0x1000000c        0x4 ./src/gpio.o
                0x1000000c                flex_int6_counter
 .bss.flex_int7_counter
                0x10000010        0x4 ./src/gpio.o
                0x10000010                flex_int7_counter
 .bss.gint0_counter
                0x10000014        0x4 ./src/gpio.o
                0x10000014                gint0_counter
 .bss.gint1_counter
                0x10000018        0x4 ./src/gpio.o
                0x10000018                gint1_counter
 .bss.flex_int4_level_counter
                0x1000001c        0x4 ./src/gpio.o
                0x1000001c                flex_int4_level_counter
 .bss.flex_int4_rising_edge_counter
                0x10000020        0x4 ./src/gpio.o
                0x10000020                flex_int4_rising_edge_counter
 .bss.flex_int4_falling_edge_counter
                0x10000024        0x4 ./src/gpio.o
                0x10000024                flex_int4_falling_edge_counter
 .bss.flex_int5_level_counter
                0x10000028        0x4 ./src/gpio.o
                0x10000028                flex_int5_level_counter
 .bss.flex_int5_rising_edge_counter
                0x1000002c        0x4 ./src/gpio.o
                0x1000002c                flex_int5_rising_edge_counter
 .bss.flex_int5_falling_edge_counter
                0x10000030        0x4 ./src/gpio.o
                0x10000030                flex_int5_falling_edge_counter
 .bss.flex_int6_level_counter
                0x10000034        0x4 ./src/gpio.o
                0x10000034                flex_int6_level_counter
 .bss.flex_int6_rising_edge_counter
                0x10000038        0x4 ./src/gpio.o
                0x10000038                flex_int6_rising_edge_counter
 .bss.flex_int6_falling_edge_counter
                0x1000003c        0x4 ./src/gpio.o
                0x1000003c                flex_int6_falling_edge_counter
 .bss.flex_int7_level_counter
                0x10000040        0x4 ./src/gpio.o
                0x10000040                flex_int7_level_counter
 .bss.flex_int7_rising_edge_counter
                0x10000044        0x4 ./src/gpio.o
                0x10000044                flex_int7_rising_edge_counter
 .bss.flex_int7_falling_edge_counter
                0x10000048        0x4 ./src/gpio.o
                0x10000048                flex_int7_falling_edge_counter
 .bss.gint0_level_counter
                0x1000004c        0x4 ./src/gpio.o
                0x1000004c                gint0_level_counter
 .bss.gint0_edge_counter
                0x10000050        0x4 ./src/gpio.o
                0x10000050                gint0_edge_counter
 .bss.gint1_level_counter
                0x10000054        0x4 ./src/gpio.o
                0x10000054                gint1_level_counter
 .bss.gint1_edge_counter
                0x10000058        0x4 ./src/gpio.o
                0x10000058                gint1_edge_counter
 .bss.timer16_0_counter
                0x1000005c        0x8 ./src/timer16.o
                0x1000005c                timer16_0_counter
 .bss.timer16_1_counter
                0x10000064        0x8 ./src/timer16.o
                0x10000064                timer16_1_counter
 .bss.timer16_0_capture
                0x1000006c        0x8 ./src/timer16.o
                0x1000006c                timer16_0_capture
 .bss.timer16_1_capture
                0x10000074        0x8 ./src/timer16.o
                0x10000074                timer16_1_capture
 .bss.timer32_1_counter
                0x1000007c       0x10 ./src/timer32.o
                0x1000007c                timer32_1_counter
 .bss.timer32_1_capture
                0x1000008c       0x10 ./src/timer32.o
                0x1000008c                timer32_1_capture
 .bss.UARTCount
                0x1000009c        0x4 ./src/uart.o
                0x1000009c                UARTCount
 *(COMMON)
 COMMON         0x100000a0       0x44 ./src/uart.o
                0x100000a0                UARTBuffer
                0x100000e0                UARTStatus
                0x100000e4                . = ALIGN (0x4)
                0x100000e4                _ebss = .
                [!provide]                PROVIDE (end, .)

.noinit_RAM2    0x20004000        0x0
 *(.noinit.$RAM2*)
 *(.noinit.$RamUsb2*)
                0x20004000                . = ALIGN (0x4)

.noinit         0x100000e4        0x0
                0x100000e4                _noinit = .
 *(.noinit*)
                0x100000e4                . = ALIGN (0x4)
                0x100000e4                _end_noinit = .
                [!provide]                PROVIDE (_pvHeapStart, DEFINED (__user_heap_base)?__user_heap_base:.)
                0x10001000                PROVIDE (_vStackTop, DEFINED (__user_stack_top)?__user_stack_top:(__top_RamLoc4 - 0x0))
                [!provide]                PROVIDE (__valid_user_code_checksum, (0x0 - (((_vStackTop + (ResetISR + 0x1)) + (DEFINED (NMI_Handler)?NMI_Handler:M0_NMI_Handler + 0x1)) + (DEFINED (HardFault_Handler)?HardFault_Handler:M0_HardFault_Handler + 0x1))))
OUTPUT(Cronometru.axf elf32-littlearm)

.debug_info     0x00000000     0x3ceb
 .debug_info    0x00000000      0x21c ./src/cr_startup_lpc11uxx.o
 .debug_info    0x0000021c       0x3f ./src/crp.o
 .debug_info    0x0000025b      0xfc3 ./src/gpio.o
 .debug_info    0x0000121e      0x14a ./src/main.o
 .debug_info    0x00001368      0xdf8 ./src/timer16.o
 .debug_info    0x00002160      0xdd5 ./src/timer32.o
 .debug_info    0x00002f35      0xdb6 ./src/uart.o

.debug_abbrev   0x00000000      0xadb
 .debug_abbrev  0x00000000       0xed ./src/cr_startup_lpc11uxx.o
 .debug_abbrev  0x000000ed       0x36 ./src/crp.o
 .debug_abbrev  0x00000123      0x240 ./src/gpio.o
 .debug_abbrev  0x00000363       0xdd ./src/main.o
 .debug_abbrev  0x00000440      0x227 ./src/timer16.o
 .debug_abbrev  0x00000667      0x236 ./src/timer32.o
 .debug_abbrev  0x0000089d      0x23e ./src/uart.o

.debug_aranges  0x00000000      0x2a0
 .debug_aranges
                0x00000000       0x60 ./src/cr_startup_lpc11uxx.o
 .debug_aranges
                0x00000060       0x18 ./src/crp.o
 .debug_aranges
                0x00000078       0xa8 ./src/gpio.o
 .debug_aranges
                0x00000120       0x40 ./src/main.o
 .debug_aranges
                0x00000160       0x78 ./src/timer16.o
 .debug_aranges
                0x000001d8       0x70 ./src/timer32.o
 .debug_aranges
                0x00000248       0x58 ./src/uart.o

.debug_ranges   0x00000000      0x228
 .debug_ranges  0x00000000       0x50 ./src/cr_startup_lpc11uxx.o
 .debug_ranges  0x00000050       0x98 ./src/gpio.o
 .debug_ranges  0x000000e8       0x30 ./src/main.o
 .debug_ranges  0x00000118       0x68 ./src/timer16.o
 .debug_ranges  0x00000180       0x60 ./src/timer32.o
 .debug_ranges  0x000001e0       0x48 ./src/uart.o

.debug_macro    0x00000000      0x50a
 .debug_macro   0x00000000       0x1d ./src/cr_startup_lpc11uxx.o
 .debug_macro   0x0000001d       0x1a ./src/crp.o
 .debug_macro   0x00000037       0x34 ./src/crp.o
 .debug_macro   0x0000006b       0x7f ./src/gpio.o
 .debug_macro   0x000000ea       0x52 ./src/gpio.o
 .debug_macro   0x0000013c       0xb8 ./src/main.o
 .debug_macro   0x000001f4       0x4c ./src/main.o
 .debug_macro   0x00000240       0x88 ./src/timer16.o
 .debug_macro   0x000002c8       0x88 ./src/timer32.o
 .debug_macro   0x00000350       0x4c ./src/timer32.o
 .debug_macro   0x0000039c       0x88 ./src/uart.o
 .debug_macro   0x00000424       0x1c ./src/uart.o
 .debug_macro   0x00000440       0xca ./src/uart.o

.debug_line     0x00000000     0x1094
 .debug_line    0x00000000       0xbc ./src/cr_startup_lpc11uxx.o
 .debug_line    0x000000bc       0x78 ./src/crp.o
 .debug_line    0x00000134      0x3c3 ./src/gpio.o
 .debug_line    0x000004f7      0x22d ./src/main.o
 .debug_line    0x00000724      0x353 ./src/timer16.o
 .debug_line    0x00000a77      0x364 ./src/timer32.o
 .debug_line    0x00000ddb      0x2b9 ./src/uart.o

.debug_str      0x00000000     0x6610
 .debug_str     0x00000000     0x2507 ./src/cr_startup_lpc11uxx.o
                               0x251a (size before relaxing)
 .debug_str     0x00002507       0xe9 ./src/crp.o
                               0x2466 (size before relaxing)
 .debug_str     0x000025f0     0x35e2 ./src/gpio.o
                               0x59f6 (size before relaxing)
 .debug_str     0x00005bd2      0x110 ./src/main.o
                               0x5088 (size before relaxing)
 .debug_str     0x00005ce2      0x3b2 ./src/timer16.o
                               0x5806 (size before relaxing)
 .debug_str     0x00006094      0x15d ./src/timer32.o
                               0x57e0 (size before relaxing)
 .debug_str     0x000061f1      0x41f ./src/uart.o
                               0x59b7 (size before relaxing)

.comment        0x00000000       0xdc
 .comment       0x00000000       0x6e ./src/cr_startup_lpc11uxx.o
                                 0x6f (size before relaxing)
 .comment       0x0000006e       0x6f ./src/crp.o
 .comment       0x0000006e       0x6f ./src/gpio.o
 .comment       0x0000006e       0x6f ./src/main.o
 .comment       0x0000006e       0x6f ./src/timer16.o
 .comment       0x0000006e       0x6f ./src/timer32.o
 .comment       0x0000006e       0x6f ./src/uart.o
 .comment       0x0000006e       0x6e c:/nxp/lpcxpresso_8.2.2_650/lpcxpresso/tools/bin/../lib/gcc/arm-none-eabi/5.4.1/../../../../arm-none-eabi/lib/armv6-m\libcr_c.a(__weak__main.o)
                                 0x6f (size before relaxing)

.ARM.attributes
                0x00000000       0x2d
 .ARM.attributes
                0x00000000       0x31 ./src/cr_startup_lpc11uxx.o
 .ARM.attributes
                0x00000031       0x31 ./src/crp.o
 .ARM.attributes
                0x00000062       0x31 ./src/gpio.o
 .ARM.attributes
                0x00000093       0x31 ./src/main.o
 .ARM.attributes
                0x000000c4       0x31 ./src/timer16.o
 .ARM.attributes
                0x000000f5       0x31 ./src/timer32.o
 .ARM.attributes
                0x00000126       0x31 ./src/uart.o
 .ARM.attributes
                0x00000157       0x31 c:/nxp/lpcxpresso_8.2.2_650/lpcxpresso/tools/bin/../lib/gcc/arm-none-eabi/5.4.1/../../../../arm-none-eabi/lib/armv6-m\libcr_c.a(__weak__main.o)

.debug_frame    0x00000000      0x7fc
 .debug_frame   0x00000000      0x118 ./src/cr_startup_lpc11uxx.o
 .debug_frame   0x00000118      0x234 ./src/gpio.o
 .debug_frame   0x0000034c       0xac ./src/main.o
 .debug_frame   0x000003f8      0x188 ./src/timer16.o
 .debug_frame   0x00000580      0x16c ./src/timer32.o
 .debug_frame   0x000006ec      0x110 ./src/uart.o
